{
  "contractName": "ShippingContract",
  "abi": [
    {
      "anonymous": false,
      "inputs": [
        {
          "indexed": false,
          "internalType": "uint256",
          "name": "Id",
          "type": "uint256"
        },
        {
          "indexed": false,
          "internalType": "enum ShippingContract.StateCommand",
          "name": "",
          "type": "uint8"
        }
      ],
      "name": "Creation",
      "type": "event"
    },
    {
      "anonymous": false,
      "inputs": [
        {
          "indexed": false,
          "internalType": "uint256",
          "name": "Id",
          "type": "uint256"
        },
        {
          "indexed": false,
          "internalType": "enum ShippingContract.StateCommand",
          "name": "",
          "type": "uint8"
        }
      ],
      "name": "Delivered",
      "type": "event"
    },
    {
      "anonymous": false,
      "inputs": [
        {
          "indexed": false,
          "internalType": "uint256",
          "name": "Id",
          "type": "uint256"
        },
        {
          "indexed": false,
          "internalType": "enum ShippingContract.StateCommand",
          "name": "",
          "type": "uint8"
        }
      ],
      "name": "Shipped",
      "type": "event"
    },
    {
      "constant": false,
      "inputs": [
        {
          "internalType": "uint256",
          "name": "Id",
          "type": "uint256"
        }
      ],
      "name": "newCommand",
      "outputs": [],
      "payable": true,
      "stateMutability": "payable",
      "type": "function"
    },
    {
      "constant": false,
      "inputs": [
        {
          "internalType": "uint256",
          "name": "Id",
          "type": "uint256"
        }
      ],
      "name": "setShipped",
      "outputs": [],
      "payable": false,
      "stateMutability": "nonpayable",
      "type": "function"
    },
    {
      "constant": false,
      "inputs": [
        {
          "internalType": "uint256",
          "name": "Id",
          "type": "uint256"
        }
      ],
      "name": "setDelivered",
      "outputs": [],
      "payable": false,
      "stateMutability": "nonpayable",
      "type": "function"
    },
    {
      "constant": true,
      "inputs": [],
      "name": "getStatus",
      "outputs": [
        {
          "internalType": "uint256",
          "name": "",
          "type": "uint256"
        }
      ],
      "payable": false,
      "stateMutability": "view",
      "type": "function"
    }
  ],
  "bytecode": "0x608060405234801561001057600080fd5b506102c9806100206000396000f3fe60806040526004361061003f5760003560e01c8063090c9a6f146100445780634e69d560146100725780636f5aebe31461009d578063e5452fc4146100d8575b600080fd5b6100706004803603602081101561005a57600080fd5b8101908080359060200190929190505050610113565b005b34801561007e57600080fd5b50610087610171565b6040518082815260200191505060405180910390f35b3480156100a957600080fd5b506100d6600480360360208110156100c057600080fd5b8101908080359060200190929190505050610192565b005b3480156100e457600080fd5b50610111600480360360208110156100fb57600080fd5b8101908080359060200190929190505050610213565b005b7f23a38858319b2bfb79dd323dcbb87362205f37a764df09cb2e6d565e799182de816000809054906101000a900460ff166040518083815260200182600281111561015a57fe5b60ff1681526020019250505060405180910390a150565b60008060009054906101000a900460ff16600281111561018d57fe5b905090565b60026000806101000a81548160ff021916908360028111156101b057fe5b02179055507f21f45ea5ef45b74169db01fb87d26e4f830a4304f39388458d1c72f9b09c089d816000809054906101000a900460ff16604051808381526020018260028111156101fc57fe5b60ff1681526020019250505060405180910390a150565b60016000806101000a81548160ff0219169083600281111561023157fe5b02179055507f8a17c0978b995d01697b48df129ab4eb266bf16bbd82300259d75aa23a20b528816000809054906101000a900460ff166040518083815260200182600281111561027d57fe5b60ff1681526020019250505060405180910390a15056fea265627a7a72315820ac184e8e648a91ca732fc645922bc41d8794282f6a15e6e6dad6f9a391423d4864736f6c63430005100032",
  "source": "// SPDX-License-Identifier: MIT\r\npragma solidity >=0.4.22 <0.9.0;\r\n\r\ncontract ShippingContract {\r\n    \r\n    //Création d'une variable pour l'état du colis avec plusieurs valeurs prédéfinies\r\n    enum StateCommand {Pending, Shipped, Delivered}\r\n    StateCommand status;\r\n    StateCommand constant defaultChoice = StateCommand.Pending; //Fixe la valeur par défaut sur Pending\r\n\r\n    //Création des évènements\r\n    event Creation(uint Id, StateCommand);\r\n    event Shipped(uint Id, StateCommand);\r\n    event Delivered(uint Id, StateCommand);\r\n\r\n    //Création de la structure du colis\r\n    struct colis {\r\n        uint Id;\r\n        string status;\r\n    }\r\n\r\n    //Fonction pour créer une nouvelle commande\r\n    function newCommand(uint Id) external payable {\r\n        emit Creation(Id, status);\r\n\r\n    }\r\n\r\n    //Fonction pour passer l'état du colis à Shipped\r\n    function setShipped(uint Id) public {\r\n        status = StateCommand.Shipped;\r\n        emit Shipped(Id, status);\r\n\r\n    }\r\n\r\n    //Fonction pour passer l'état du colis à Delivered\r\n    function setDelivered(uint Id) public {\r\n        status = StateCommand.Delivered;\r\n        emit Delivered(Id, status);\r\n\r\n    }\r\n\r\n    //Fonction pour obtenir l'état du colis\r\n    function getStatus() public view returns (uint) {\r\n        return uint(status);\r\n\r\n    }\r\n\r\n}",
  "sourcePath": "C:/Users/Alban/Desktop/Git/ShippingProject/contracts/ShippingContract.sol",
  "compiler": {
    "name": "solc",
    "version": "0.5.16+commit.9c3226ce.Emscripten.clang"
  },
  "schemaVersion": "3.3.4",
  "updatedAt": "2021-03-26T10:32:11.706Z",
  "networkType": "ethereum",
  "devdoc": {
    "methods": {}
  },
  "userdoc": {
    "methods": {}
  }
}